:020000040800F2
:10000000B8FA002069370008B7020008B9020008F2
:10001000BD020008C1020008C5020008000000007F
:10002000000000000000000000000000C9020008FD
:10003000CB020008000000006F530108E5340008FF
:1000400083370008833700088337000883370008A8
:100050008337000883370008833700088337000898
:100060008337000883370008833700088337000888
:100070008337000883370008833700088337000878
:100080008337000883370008833700088337000868
:100090008337000883370008833700088337000858
:1000A0008337000883370008833700088337000848
:1000B000833700088337000899F100088337000868
:1000C0008337000883370008833700088337000828
:1000D00083370008D536000883370008510A000826
:1000E0008337000883370008833700088337000808
:1000F00083370008833700088337000883370008F8
:1001000083370008AD2800088337000883370008CC
:10011000833700088337000883370008D10B0008B5
:1001200083370008833700088337000883370008C7
:1001300000F002F800F0B0F80AA090E8000C824449
:100140008344AAF10107DA4501D100F0A5F8AFF226
:10015000090EBAE80F0013F0010F18BFFB1A43F0A5
:10016000010318478C090400AC0904000A444FF04D
:10017000000C10F8013B13F0070408BF10F8014B06
:100180001D1108BF10F8015B641E05D010F8016B4B
:10019000641E01F8016BF9D113F0080F1EBF10F8AF
:1001A000014BAD1C0C1B09D16D1E58BF01F801CBD2
:1001B000FAD505E014F8016B01F8016B6D1EF9D555
:1001C0009142D6D37047000000230024002500266A
:1001D000103A28BF78C1FBD8520728BF30C148BFAA
:1001E0000B6070476E2914F01080702913F0078699
:1001F000662915F03581652915F03281672915F0DA
:100200002F816129AFF3008003681B0A28BF41F0EA
:100210008001692913F07885642913F075857529A3
:1002200013F072856F2914F00981782913F0D385B2
:10023000E92914F0A380E42914F0A080F52914F032
:100240009D80EF2914F00681F82913F0D285036808
:10025000DB0928BF41F08001632914F01280732963
:1002600014F01780E32914F08D83F32914F092839E
:10027000002070471FB514F0E3FB040000200021AC
:1002800015F0D8F8401C60600020002115F0BCF883
:10029000E0601FBD10B510BD14F0A4FB1146FFF7C0
:1002A000E9FF00F057FA14F07DFC03B4FFF7F2FF0A
:1002B00003BC03F0B1F9704700BFFEE700BFFEE7E3
:1002C00000BFFEE700BFFEE7704770470CB5002097
:1002D000019000906C48006840F480306A490860E2
:1002E00000BF6948006800F4003000900198401C8D
:1002F0000190009818B90198B0F5A06FF1D162484B
:10030000006800F4003010B10120009001E00020EE
:1003100000900098012843D15C48006840F010002C
:100320005A4908600846006820F003000860084643
:10033000006840F002000860534840685249486035
:100340000846406848600846406840F4806048605D
:100350000846406820F47C1048600846406840F435
:10036000E81048600846006840F08070086000BFF0
:100370004548006800F000700028F9D04248406805
:1003800020F00300404948600846406840F0020001
:10039000486000BF3C48406800F00C000828F9D1D4
:1003A0000CBD10B5FFF792FF10BD10B536480068C0
:1003B00040F001003449086008464068344908406C
:1003C0003149486008460068324908402E490860B3
:1003D0000846006820F4802008600846406820F441
:1003E000FE0048604FF41F008860FFF7DAFF4FF00F
:1003F00000602949086010BD10B5002100200022CE
:10040000214B5B6803F00C0121B1042906D00829B7
:1004100028D107E0214B224C236027E01F4B204CC2
:10042000236023E0184B5B6803F47010164B5B6885
:1004300003F48032022303EB904022B9194B43436B
:10044000174C23600DE0104B5B6803F4003323B1BD
:10045000144B4343124C236003E0104B4343104CB6
:10046000236003E00D4B0E4C236000BF00BF064B22
:100470005B68C3F303130C4CE15C094B1B68CB4076
:10048000074C236010BD0000001002400020024015
:100490000000FFF8FFFFF6FE08ED00E000127A0012
:1004A0000000002000093D00040000200EB50020DF
:1004B000DD49086050E000F067FADB480838006862
:1004C0000090DA48D0F8A431D948D0F88821D9482A
:1004D000D0F8B411D8A013F0BBFB02A800210B4642
:1004E0000222CDE9001008460DF0B3FB00F060FADF
:1004F000D048D0F880010090CC48D0F8A431CC4846
:10050000D0F88821CB48D0F8B411CBA013F0A0FBD1
:1005100002A800210B460222CDE9001008460DF08A
:1005200098FB00F059FAC348D0F880010090BF480A
:10053000D0F8A431BE48D0F88821BE48D0F8B41114
:10054000BDA013F085FB02A800210B460222CDE9D5
:10055000001008460DF07DFBADE770B505460E4670
:10056000C048008800F4004000282BD00024BD487B
:100570000088C0F30E040020BB490855B949088023
:10058000B949BAA013F064FBB748C07A412801D139
:10059000012000E00020B449097B502901D101214C
:1005A00000E00021084018B1B1A013F051FB08E0B1
:1005B000B2A013F04DFBAC48027BC17AB2A013F09D
:1005C00047FB00BF70BD30B58BB00446002500BFAF
:1005D00005F060F80AA80AF0CAFF0AAA0121084635
:1005E00007F053F800BF00BF00BF05F08BF90546C8
:1005F00000BF00BFA6480078401CA549087000BF96
:1006000000BF284605F082F900BF00BF00BF0AA85E
:100610000021AFF2B9020223CDE90032CDE9021088
:100620000A230A469BA19F480DF051FD0AA99D4847
:100630000DF02BFF0AA8032100220592CDE9062127
:100640000890104680210C22974BCDE90132CDE96C
:10065000031005200023AFF2AB1294A1009098483C
:100660000BF05CFB0AA997480CF0CDFE00BF00BF61
:1006700000BF05F047F9054600BF00BF8448007879
:10068000401E8349087008460078A0B98E4800884B
:10069000002809DD00BF00BF284605F037F900BF7C
:1006A00000BF07F0DBFB0DE000BF00BF284605F0F0
:1006B0002DF900BF06E000BF00BF284605F026F96F
:1006C00000BF00BF00BF0AA900200BF07BFC0BB0ED
:1006D00030BD10B502F012FF4FF4A06003F064F8D3
:1006E0004FF4E13002F0A7FF4FF4E13000F0DFF902
:1006F000764841684820884700F0BEFA002002F0A2
:10070000E0FD012002F0DDFD00F002F902F0F6FB51
:1007100000F07EF902F0F8FC6D4800686D49B0FB0E
:10072000F1F0C4B2694841682046884702E06AA0F7
:1007300013F08EFA01F0E9F80028F8D16AA013F05E
:1007400087FA0FF0C3FA6C49012208686BA111F017
:1007500006FB10BD10B58AB00024FFF7BAFF09A848
:1007600006F06AFD00BF00BF00BF05F0CBF80446ED
:1007700000BF00BF46480078401C4549087000BFD4
:1007800000BF204605F0C2F800BF00BF00BF09A8A7
:10079000032100220592CDE90621089010464FF46E
:1007A00000713322564BCDE90132CDE9031002200E
:1007B0000023AFF2ED1253A1009042480BF0AEFAC5
:1007C00000BF00BF00BF05F09DF8044600BF00BF9A
:1007D0002F480078401E2E49087008460078A0B9BE
:1007E00039480088002809DD00BF00BF204605F019
:1007F0008DF800BF00BF07F031FB0DE000BF00BF68
:10080000204605F083F800BF06E000BF00BF204689
:1008100005F07CF800BF00BF00BF09A806F0D5FFB7
:1008200000200AB010BD000088012242008023424F
:100830000000234200002242535550A3BA256C7594
:10084000A3BB535650A3BA256C75A3BB53554EA3F7
:10085000BA256C75A3BB53554EA3BA256C75A1A3DD
:100860000D0A0000140000202C0F0020257300004A
:100870004150D6B8C1EE0D0A00000000CEB4D6AA91
:10088000D6B8C1EE0D0A00002563202563000000E4
:10089000E0000020757361727433206465616C2020
:1008A000746D7200F80E0020F80C00205573617210
:1008B0007433204465616C207461736B0000000028
:1008C000340C002070030020A400002050020020FF
:1008D0000000002040420F00BCECB2E25344BFA82D
:1008E000D6D02E2E2E0D0A005344BFA8D2D1D7BC8D
:1008F000B1B8200D0A00000044030020303A000087
:10090000340400207374617274207461736B00008E
:1009100008B50121D42003F0D5FC0220ADF8000079
:1009200010208DF8030003208DF80200694634483A
:1009300003F008F842F20100ADF8000069463148C2
:1009400003F000F80420ADF8000069462E4802F0DC
:10095000F9FF4FF40070ADF8000069462B4802F033
:10096000F1FF0221264803F09AF842F201012548DE
:1009700003F097F80421244803F093F84FF4007132
:10098000224803F08EF808BD10B54FF400711F48DF
:1009900003F087F804211C4803F083F84FF400515A
:1009A000184803F07CF80121164803F078F810BDD0
:1009B00010B54FF40051134803F073F801211148AA
:1009C00003F06FF80421104803F069F84FF4007148
:1009D0000E4803F064F810BD10B54FF400510948FB
:1009E00003F05FF80421084803F05BF84FF400714E
:1009F000064803F056F80121024803F052F810BDF2
:100A0000000801400010014000180140001C014096
:100A100008B50121102003F055FC0820ADF80000B6
:100A200010208DF8030001208DF802006946074868
:100A300002F088FF0821054803F033F808BD10B51F
:100A40000821024803F02BF810BD000000100140FF
:100A500010B540F22551584803F082FAF8B15648D3
:100A600003F0FEF9C4B25548008800F40040B0B964
:100A700052480088B0F5167F12DA0021504804F081
:100A800049FB4E48008818B901214D4804F0AEF8E2
:100A90004A490888411C494A11804A490C5405E0DA
:100AA0004648008840F400404449088010BD10B515
:100AB00086B004460121082003F004FC01218804CB
:100AC00003F00DFC3C4803F08BF84FF48060ADF868
:100AD000100003208DF8120018208DF8130004A9CF
:100AE000394802F02FFF4FF40060ADF810000420E9
:100AF0008DF8130004A9344802F024FF009400206C
:100B0000ADF80400ADF80600ADF80800ADF80C0033
:100B10000C20ADF80A006946274803F0A4F801212B
:100B2000254803F02CF9012240F22551224803F018
:100B300032F927208DF8140002208DF815000320CB
:100B40008DF8160001208DF8170005A802F031FE7F
:100B500041F61F4140F2E73000F059F800201749F4
:100B600008800021164804F041F806B010BD0FB40B
:100B700038B505A800901548009A049913F056F866
:100B800000200090114813F02DFA85B200240DE0EA
:100B900000BF4021084803F0CDF90028F9D00B48E8
:100BA000015D054803F058F9601C84B2AC42EFDBEC
:100BB00038BC5DF814FB0000004800401400002021
:100BC000001400402C0F0020000C01408411002074
:100BD00010B506F0C7FB2648008800F0010098B168
:100BE0002448008840F400402249088020480088BA
:100BF00020F001001E4908801D481038008820F0B0
:100C000001001B491039088006F0BDFB10BD7FB5FF
:100C100005460C460121202003F061FBADF804508D
:100C2000ADF800400020ADF80600ADF802006946BE
:100C30000F48103803F07EFC012211460C48103892
:100C400003F0EFFF01210A48103803F0CFFF3720EF
:100C50008DF80C0000208DF80D0002208DF80E009C
:100C600001208DF80F0003A802F0A3FD7FBD000056
:100C700010140040140000206248406940F4807065
:100C8000604948610846806940F020008861084654
:100C9000806940F0400088610846806940F080002B
:100CA00088610846806940F4807088615648006811
:100CB0000020554908600846006840F0BB300860D5
:100CC000081F006800F0FF20091F08600846006840
:100CD00040F0BB1008604D48006800204B49086098
:100CE0000846006840F0BB300860081F00684849AB
:100CF00008404649091F08600846006845490843FE
:100D00004249091F08604448006880B242490860AF
:100D100008460068414908433F490860081F0068C9
:100D200000F07F40091F0860084600683C490843FE
:100D30003949091F08603B48406820F47060394910
:100D400048600846406840F43060486008460068E3
:100D500000F07F4008600846006831490843314987
:100D6000086000204FF02041086148612E4908606A
:100D7000C806006940F48050C90608610846006949
:100D800040F0100008610846406940F44070486136
:100D90000846406948610846406948616FF0704004
:100DA000C1F814010846006940F00100086170476D
:100DB00010B506E004784FF0D0435C54491C401C49
:100DC000521E002AF6D110BD06E04FF0D0435B5C06
:100DD00000F8013B491C521E002AF6D1704713B59A
:100DE00004460122214601A8FFF7E2FF1CBD18B509
:100DF0000446012221466846FFF7E6FF9DF8000001
:100E000018BD000000100240041401400418014005
:100E100000FFFF0FBB0000B0041C01400000BBBB83
:100E2000BBBBBB0000200140140100A00146002014
:100E3000012900D011B9FE4B197000E0262070473F
:100E40000146FC4A506820F0FF000843506070479C
:100E500070B5044605E0F748456B05F0450000B164
:100E600000E0F8E700BF042004F063FA20B104209A
:100E700004F069FA032070BD012004F05AFA20B191
:100E8000012004F060FA0120F5E7EA480069A04279
:100E900001D01020EFE740F2FF50E6498863084692
:100EA000406908210840C0B2E5E72DE9FC4107464A
:100EB0000D46002600240020009001900820DE4905
:100EC000086010204860402088600020C8604FF40F
:100ED00080600861084604F0B5F91020FFF7B8FFFC
:100EE000044614B12046BDE8FC81D44800880004C3
:100EF000D149086037204860402088600020C860E1
:100F00004FF480600861084604F09CF93720FFF731
:100F10009FFF04460CB12046E5E74FF0FF30C8497B
:100F2000086008204860302088600220C8600020E7
:100F3000086101204861084604F0ADF90020BE496F
:100F4000086033204860402088600020C8604FF46B
:100F500080600861084604F075F93320FFF778FFD8
:100F600004460CB12046BEE70CE04FF4001004F03C
:100F7000E0F938B104F0B1F94DF82600761C022EE4
:100F800000D306E0AB48406B40F22A6108400028DD
:100F9000EBD000BF082004F0CCF920B1082004F009
:100FA000D2F904209FE7022004F0C3F920B1022007
:100FB00004F0C9F9022096E7202004F0BAF920B124
:100FC000202004F0C0F906208DE74FF4007004F0F3
:100FD000B0F928B14FF4007004F0B5F9072082E7AA
:100FE00040F2FF5004F0AFF900980006009901F4B8
:100FF0007F4140EA0120009901F47F0140EA11207D
:10100000009940EA1160686001980006019901F4B6
:101010007F4140EA0120019901F47F0140EA11205B
:10102000019940EA1160286020465CE77CB50546DE
:10103000002400200090019000260DB1022600E05F
:1010400000267C48406900F0007008B10E207CBD8D
:101050007A49098888B26946FFF727FF04460CB130
:101060002046F4E7019800F4802060B373480088BC
:1010700000047149086037204860402088600020E3
:10108000C8604FF480600861084604F0DBF8372040
:10109000FFF7DEFE04460CB12046D8E7664806603E
:1010A000062065494860402088600020C8604FF4F1
:1010B00080600861084604F0C5F80620FFF7C8FE06
:1010C00004462046C3E72520C1E770B50446002545
:1010D0005C480078032801D1272070BD594800786A
:1010E00038B158480078012803D0564800780228C3
:1010F00018D1022C01D32720EFE7E0B2FFF796FFCB
:1011000005467DB94B48406820F4C05049494860C5
:1011100008464068A1B240EAC120464948600846F6
:10112000406848602846D8E710B504464248046045
:10113000072041494860402088600020C8604FF483
:1011400080600861084604F07DF80720FFF780FE04
:1011500010BDF0B50146002000223A4B1B7881F803
:101160005630364B1B88A1F85430374B1B681A0E8B
:1011700093090B70C2F383034B7002F003038B706F
:10118000314B1B68C3F30742CA702F4B1B88C3F354
:1011900007220A712C4B1A784A715B681A0E1301E8
:1011A000CB80294B5B68C3F30742CB8843EA121319
:1011B000CB8002F00F030B72234B9B88C3F30722F3
:1011C000D3094B72C2F380138B72C2F34013CB72FC
:1011D000C2F300130B7300234B731A4B1B783BB104
:1011E000184B1B78012B03D0164B1B78032B5ED1B9
:1011F00093071B0D0B61144B1A790B6943EA8203A9
:101200000B61114B9B681A0E0B6943EA92130B6139
:10121000C2F3C2030B7502F007034B750A4B9B68C0
:10122000C3F3074253098B75C2F38203CB750DE0FC
:101230002000002000800140F81300201C00002046
:101240000C140020180000202414002093075B0FCA
:101250000B76F74B1B89C3F307220B7E43EAD213AD
:101260000B760B695B1C0024C1E912340B7E9B1CBE
:10127000012404FA03F3DC17D1E91256A5FB037C21
:1012800006FB03C305FB0433C1E912730C7A012387
:10129000A3400B650024D1E912650B6DA6FB037C0E
:1012A00005FB03C306FB0433C1E912732EE0E14BD7
:1012B0001B78022B2AD1DE4B1A7993069B0A0B610D
:1012C000DB4B9B681A0E0B6943EA02230B61D84B78
:1012D0009B68C3F307420B6913430B61D44B1B8913
:1012E000C3F307220B695B1C4FF40074A3FB044695
:1012F0004FF480630025A4FB037C06FB03C304FBBF
:101300000533C1E912734FF400730B65C2F3801308
:1013100001F8193F93065B0E4B70C54B1A7A4B7858
:1013200043EAD2134B7002F07F038B70C04BDB6833
:101330001A0ED309CB70C2F341130B71C2F38203AF
:101340004B7193071B0F8B71B94BDB68C3F30742DB
:101350008B7943EA92138B71C2F34013CB71002354
:101360000B7202F001034B72B14B9B89C3F307224E
:10137000D3098B72C2F38013CB72C2F340130B7389
:10138000C2F300134B73C2F381038B7302F00303A8
:10139000CB73A74B1A7B53080B7401234B74A64BDA
:1013A0001B681A0ECA741939A34B1B68C3F3074292
:1013B0001402CC85A04B1B88C3F30722CB8D1343AB
:1013C000CB859D4B1A7814060C635B681A0E0B6B69
:1013D00043EA02440C63984B5B68C3F307420B6B10
:1013E00043EA02240C63944B9B88C3F307220B6BE4
:1013F00013430B63904B1A7934235A548E4B9B68DA
:101400001A0E35235A548C4B9B68C3F307421406BB
:101410008C63894B1B89C3F307228B6B43EA02441D
:101420008C63854B1A7A8B6B43EA02248C63824B64
:10143000DB681A0E8B6B13438B637F4BDB68C3F344
:1014400007423C235B5C43EA12143C235C541307C1
:101450001C0DCC87784B9B89C3F30722CB8F13439A
:10146000CB87754B1A7B540840235C5401244123DD
:101470005C54F0BD70B500264FF4803505E06F4830
:10148000446B04F0450000B103E0281EA5F10105FE
:10149000F5D100BF15B104F0040028B103260420E3
:1014A00003F051FF304670BD012003F042FF18B138
:1014B0000126012003F047FF40F2FF5003F043FFF5
:1014C0003046F0E72DE9F04105460E464FF00008A2
:1014D00005E05A48476B07F0450000B100E0F8E727
:1014E00000BF042003F025FF28B1042003F02BFFE8
:1014F0000320BDE8F081012003F01BFF20B1012093
:1015000003F021FF0120F4E74C480069A84201D014
:101510001020EEE740F2FF5003F015FF4748446902
:1015200004F4604018B9200C30804046E1E704F430
:10153000005008B11320DCE704F4804008B110200B
:10154000D7E704F4004008B10F20D2E74046D0E7C7
:1015500038B500240120009003F05FFE08B9252073
:1015600038BD34480078042821D000203449086070
:1015700002204860C02088600020C8604FF480606E
:101580000861084603F05EFEFFF774FF04460CB1E5
:101590002046E5E7294840692749086027488069CF
:1015A00048602648C06988602448006AC8602148AD
:1015B000007858B11F480078012807D01D480078EE
:1015C000062803D01B480078022816D100201C49A9
:1015D000086003204860402088600020C8604FF405
:1015E00080600861084603F02DFE69460320FFF77E
:1015F00069FF04460CB12046B2E70E480078032884
:1016000020D1BDF8000000040D49086003204860A7
:10161000402088600020C8604FF480600861084660
:1016200003F010FEFFF726FF04465CB1204697E763
:1016300024140020180000203414002000800140F1
:10164000F8130020FE480078042827D0BDF80000D9
:10165000FC490860BDF800000004FB49086009204F
:101660004860C02088600020C8604FF48060086136
:10167000084603F0E7FDFFF7FDFE04460CB12046E7
:101680006EE7F2484069F2490860F04880694860B6
:10169000EE48C0698860ED48006AC86000205FE7D6
:1016A00010B505E0E948446B04F0450000B100E0E6
:1016B000F8E700BF042003F03CFE20B1042003F053
:1016C00042FE032010BD40F2FF5003F03CFE00201C
:1016D000F8E770B500264FF4803505E0DB48446B31
:1016E00004F0450000B103E0281EA5F10105F5D185
:1016F00000BF15B104F0040028B10326042003F054
:1017000022FE304670BD04F0400018B10026402093
:1017100003F019FE3046F5E770B500254FF480342C
:1017200004E0802003F005FE00B103E0201EA4F1D8
:101730000104F6D100BF0CB9032070BD40F2FF5088
:1017400003F001FE2846F8E72DE9F04700270024C2
:1017500000260025A046A146B220BE4908750020FB
:10176000086048608860C8600861084603F02AFD88
:10177000032003F047FD012003F041FD00BF12E00C
:101780000020B149086048608860C8604FF48060FC
:101790000861084603F056FDFFF7BEFF044604B992
:1017A00003E0781CC7B24A2FEADB00BF14B1204621
:1017B000BDE8F0874FF4D570A34908600820486061
:1017C000402088600020C8604FF4806008610846AF
:1017D00003F038FDFFF77DFF044624B90120984946
:1017E00008704FF080490020974908603720486012
:1017F000402088600020C8604FF48060086108467F
:1018000003F020FD3720FFF723FB0446002C4BD1CB
:1018100034E000208C490860372048604020886010
:101820000020C8604FF480600861084603F00AFD9C
:101830003720FFF70DFB04460CB12046B8E7864879
:1018400049EA0000804908602920486040208860FB
:101850000020C8604FF480600861084603F0F2FC85
:10186000FFF71EFF04460CB12046A1E77748466902
:10187000012080EAD67080F001086D1CB8F1000FDD
:1018800003D14FF6FF708542C3D34FF6FF708542F8
:1018900002D31B2420468BE706F08040061E32D080
:1018A0000220674908702EE01CE06C486649086019
:1018B00001204860402088600020C8604FF48060AC
:1018C0000861084603F0BEFCFFF7EAFE04460CB1CF
:1018D00020466DE75D484669012080EAD67080F0B9
:1018E00001086D1CB8F1000F03D14FF6FF7085425F
:1018F000DBD34FF6FF70854202D31B24204657E707
:1019000003204F490870204652E77CB5002500248B
:101910000121302002F0D6FC012140F2024002F009
:10192000C4FC4FF4F850ADF8000018208DF8030007
:1019300003208DF802006946494802F003F80420AC
:10194000ADF8000018208DF8030003208DF8020088
:101950006946444801F0F6FF8020ADF800004820B9
:101960008DF8030003208DF8020069463D4801F020
:10197000E9FF03F019FC31208DF8040000208DF8F8
:1019800005008DF8060001208DF8070001A801F080
:1019900010FFFFF7D9FE044614B9FFF7D9FD04463E
:1019A0001CB93148FFF7D5FB044634B92E49B1F8CC
:1019B00054100804FFF7B8FB04461CB90120FFF7D8
:1019C00084FB04461CB11E480078032812D1264827
:1019D00090F8560020B1244890F85600012801D113
:1019E0000A2500E004252846FFF72AFA0020FFF721
:1019F0001DFA044620467CBD10B5002003F002FC11
:101A0000002010BD70B58CB006460C46154601216D
:101A1000022002F04AFC154803F0B0FC00211348F4
:101A200003F079FD09488030019002960395A008E3
:101A3000049000200590802006908000079017E019
:101A4000180000201C000020F81300200080014036
:101A500024140020E0130020000010800080FF808C
:101A600000100140001401404814002044040240CA
:101A700080000890002009904FF400500A90002048
:101A80000B9001A9FA4803F01BFD0021F84803F070
:101A900042FD0CB070BD0146002002E04910421C1E
:101AA000D0B20129FAD170472DE9F84F8146174687
:101AB00098460A9C4FF0000AD3464D464FF0FF3639
:101AC000B9F1000F02D12620BDE8F88F0020E949C6
:101AD000C862E9480078022805D10402780A40EA81
:101AE000C8574FEA68280020E44988604860401ED3
:101AF0000860012048610020C8600861084603F0C2
:101B0000CAFBDC48406900F0007008B10E20DBE73A
:101B1000002C21DDB4F5006F1EDC601E2040D8B91A
:101B20002046FFF7B8FF0090D54804601020D44944
:101B30004860402088600020C8604FF480600861E1
:101B4000084603F07FFB1020FFF782F98246BAF1C6
:101B5000000F03D05046B7E72620B5E700980001F4
:101B6000C6498860084644604FF0FF300860012095
:101B700048610220C86000200861084603F08BFB22
:101B8000BF4807601120BE4948604020886000209F
:101B9000C8604FF480600861084603F053FB1120D1
:101BA000FFF756F98246BAF1000F01D050468BE795
:101BB000B448007800285AD101F02AFD18E04FF40B
:101BC000004003F0B6FB78B14FF0000B06E0A948E7
:101BD0008030006845F82B000BF1010BBBF1080FBA
:101BE000F5D32035A84E03E00EB904206CE7761E2D
:101BF000A048406B40F22A6108400028DFD008204E
:101C000003F097FB20B1082003F09DFB04205BE765
:101C1000022003F08EFB20B1022003F094FB02208F
:101C200052E7202003F085FB20B1202003F08BFB3E
:101C3000062049E74FF4007003F07BFB28B14FF416
:101C4000007003F080FB07203EE703E003F045FB54
:101C500028602D1D4FF4001003F06BFB0028F5D118
:101C600001F0D8FC40F2FF5003F06DFB32E08548F4
:101C7000007801282ED1002221464846FFF7C2FEF7
:101C800000208249087082490870824908707948AA
:101C9000C06B40F22A3108437649C863012003F043
:101CA000CEFA00E0761E72484438006800F4005016
:101CB00038B97848007820B97448007808B9002EFF
:101CC000F0D10EB90420FFE67048007810B16F48DB
:101CD00090F800A05046F7E62DE9FF5F17469846BA
:101CE000DDE90E464FF00009CA464FF0FF356A495C
:101CF0000098086000205F49C8625F4800780228A9
:101D000005D10402780A40EAC8574FEA6828002043
:101D10005A4988604860401E0860012048610020E0
:101D2000C8600861084603F0B6FA5248406900F0FE
:101D3000007018B10E2004B0BDE8F09F002C21DD2A
:101D4000B4F5006F1EDC601E2040D8B92046FFF7B6
:101D5000A2FE83464A48046010204949486040205A
:101D600088600020C8604FF480600861084603F076
:101D700069FA1020FFF76CF88146B9F1000F03D023
:101D80004846D8E72620D6E7012E70D906FB04F096
:101D9000B0F1007F01D32620CDE74FEA0B10374981
:101DA000886006FB04F048604FF0FF3008600120B7
:101DB00048610220C86000200861084603F06BFA01
:101DC0002F48076012202E4948604020886000207C
:101DD000C8604FF480600861084603F033FA1220AF
:101DE000FFF736F88146B9F1000F01D04846A2E767
:101DF0002448007800287DD101F00AFC1EE04FF451
:101E0000004003F096FAA8B14FF0000A08E0194824
:101E1000803000682049096841F82A000AF1010A67
:101E2000BAF1080FF3D31C48006820301A49086043
:101E3000154D03E00DB904207DE76D1E0D48406B84
:101E400040F22A3108400028D9D0082003F071FA66
:101E500020B1082003F077FA04206CE7022003F099
:101E600068FAD8B1022003F06EFA022063E7A4E01A
:101E70004404024000800140180000200C1400209F
:101E8000F813002020000020FFFF7F002200002028
:101E9000210000202300002024000020202003F047
:101EA00048FA20B1202003F04EFA062043E74FF411
:101EB000007003F03EFA28B14FF4007003F043FACB
:101EC000072038E709E003F008FAFA4909680860D2
:101ED000F8480068001DF74908604FF4001003F04F
:101EE00028FA0028EFD14FF4807003F022FA20B3D3
:101EF000F14800E028E0007838B1EF480078012888
:101F000003D0ED480078022817D10020EB49086083
:101F10000C204860402088600020C8604FF480603A
:101F20000861084603F08EF90C20FEF791FF814608
:101F3000B9F1000F01D04846FDE601F06BFB40F21D
:101F4000FF5003F000FA38E0DD480078012834D172
:101F500006FB04F100220098FFF754FD0020D94948
:101F600008700120D84908700020D8490870D84866
:101F7000C06B40F22A310843D549C8630846C06A9D
:101F800040F00800C86200E06D1ED248006800F40E
:101F9000005008B9002DF7D10DB90420CBE600BFE1
:101FA000CA48007818B9C74800780028F8D0C54852
:101FB000007810B1C34890F800904846BBE61CB5C5
:101FC0000446002001900090C34800880004BB49EB
:101FD00008600D204860402088600020C8604FF4F1
:101FE00080600861084603F02DF9B948406B009005
:101FF00002E0B748406B0090009800F045000028D0
:10200000F7D0012003F095F920B1012003F09BF9EE
:1020100001201CBD042003F08CF920B1042003F042
:1020200092F90320F5E7AA4800690D2801D0102095
:10203000EFE740F2FF5003F086F9A54840690190B0
:102040000198C0F3432020700020E2E72DE9FF5FF4
:1020500086B017469846149D0026002005900490EF
:10206000002481460390824602900195DDF818B065
:10207000DDF818B0BBF1000F03D126200AB0BDE88F
:10208000F09F00209249C862944988604860401ED1
:102090000860012048610020C8600861084603F01C
:1020A000FAF88B48406900F0007008B10E20E5E7AF
:1020B00081480078022805D10502780A40EAC8570D
:1020C0004FEA6828002D1FDDB5F5006F1CDC681E87
:1020D0002840C8B92846FFF7DEFC05907748056020
:1020E000102076494860402088600020C8604FF486
:1020F00080600861084603F0A5F81020FEF7A8FEEE
:1021000006461EB13046B9E72620B7E77248008878
:1021100000046A4908600D20486040208860002063
:10212000C8604FF480600861084603F08BF80D200A
:10213000FEF78EFE06460EB130469FE764484069C2
:1021400003904FF0FF341BE0641E634800880004D6
:102150005A4908600D204860402088600020C8600F
:102160004FF480600861084603F06CF80D20FEF71C
:102170006FFE06460EB1304680E755484069039031
:10218000039800F4807008B9002CDDD10CB9292027
:1021900074E74A4807601820484948604020886032
:1021A0000020C8604FF480600861084603F04AF8D8
:1021B0001820FEF74DFE06460EB130465EE70020C1
:1021C0004149087005980001444988600846456007
:1021D0004FF0FF300860012048610020C8600861AE
:1021E000084603F058F84FF0FF34354800780028CF
:1021F0005FD101F00DFA43E04FF4804003F099F80D
:10220000C8B30198A0EB0900202821D20198A0EBC7
:10221000090000F0030020B90198A0EB0900800834
:1022200004E00198A0EB09008008401C02904FF0E8
:10223000000A09E0DBF8000003F053F80AF1010A94
:102240000BF1040B09F1040902988245F2D30FE067
:102250004FF0000A05E05BF82A0003F042F80AF1AB
:10226000010ABAF1080FF6D30BF1200B09F120098E
:102270006FF0404404E0FFE70CB90420FEE6641E62
:102280001348406B40F21A6108400028B4D008207F
:1022900003F04FF820B1082003F055F80420EDE6D4
:1022A000022003F046F8D8B1022003F04CF80220D7
:1022B000E4E630E02400002018000020F81300209D
:1022C0002000002022000020210000202300002008
:1022D00000800140000402401C0000200C1400207B
:1022E000102003F026F820B1102003F02CF8052070
:1022F000C4E64FF4007003F01CF828B14FF40070EE
:1023000003F021F80720B9E601F084F940F2FF500C
:10231000FC4988633EE0FC48007801283AD110224D
:1023200029460698FFF76EFB0020F8490870F84927
:102330000870F8490870F348C06B40F21A3108433E
:10234000F049C8630846C06A40F00800C86200E06F
:10235000641EF148006800F4005008B9002CF7D161
:102360001CB9FFF7D2FA042088E64FF0FF3400E0F2
:10237000641EE848007820B9E448007808B9002CC9
:10238000F6D10CB9042079E6E048007810B1DF48B6
:10239000007873E640F2FF5002F0D5FF04A8FFF783
:1023A0000EFE064603E004A8FFF709FE06463EB906
:1023B0009DF810000728F6D09DF810000628F2D0EE
:1023C00030465BE62DE9FF5F84B0DDE91247002669
:1023D000002003900290002580468146019007FB73
:1023E00004FBDDF810A0DDF810A0BAF1000F03D156
:1023F000262008B0BDE8F09F0020C249C862C74946
:1024000088604860401E0860012048610020C86064
:102410000861084602F03FFFBA48406900F00070CA
:1024200008B10E20E5E7BE480078022808D1040272
:10243000DDE90601400A40EAC1504912CDE9060132
:10244000002C1FDDB4F5006F1CDC601E2040C8B9F5
:102450002046FFF720FB0390B24804601020B149EA
:102460004860402088600020C8604FF480600861A8
:10247000084602F0E7FE1020FEF7EAFC06461EB111
:102480003046B6E72620B4E7012F6FD907FB04F0EA
:10249000B0F1007F01D32620ABE7A148007838B126
:1024A0009F480078012803D09D48007802282DD14C
:1024B0009D48008800049B49086037204860402000
:1024C00088600020C8604FF480600861084602F010
:1024D000B9FE3720FEF7BCFC06460EB1304688E751
:1024E0009048076017208F4948604020886000208E
:1024F000C8604FF480600861084602F0A3FE172010
:10250000FEF7A6FC06460EB1304672E785490698EE
:10251000086019204860402088600020C8604FF49F
:1025200080600861084602F08DFE1920FEF790FCDD
:1025300006460EB130465CE7039800017749886093
:1025400007FB04F048604FF0FF300860012048614D
:102550000020C8600861084602F09DFE6A480078C5
:10256000002871D1451E01F053F840E0F3E06548C2
:10257000406B00F48040A8B3ABEB080020281ED2CB
:10258000ABEB080000F0030018B9ABEB08008008C3
:1025900003E0ABEB08008008401C01904FF00009FD
:1025A00009E0DAF8000002F09CFE09F101090AF1E5
:1025B000040A08F1040801988145F2D30FE04FF0B6
:1025C000000905E05AF8290002F08BFE09F1010923
:1025D000B9F1080FF6D30AF1200A08F120086FF0CC
:1025E000404504E0FFE70DB9042002E76D1E4548B1
:1025F000406B40F21A3108400028B8D0082002F0A1
:1026000098FE20B1082002F09EFE0420F1E6022090
:1026100002F08FFE20B1022002F095FE0220E8E6D3
:10262000102002F086FE20B1102002F08CFE052062
:10263000DFE64FF4007002F07CFE30B14FF4007022
:1026400002F081FE0720D4E62CE04FF4807002F007
:1026500070FE00B33248007838B131480078012864
:1026600003D02F480078022815D100202D4908609A
:102670000C204860402088600020C8604FF48060D3
:102680000861084602F0DEFD0C20FEF7E1FB06467D
:102690000EB13046ADE600F0BDFF40F2FF5002F053
:1026A00052FE58E018480078012854D107FB04F185
:1026B00010220498FFF7A6F90020144908700120A1
:1026C000134908700020134908700E48C06B40F28F
:1026D0001A3108430B49C8630846C06A40F0080035
:1026E000C8624FF0FF3500E06D1E0B48006800F433
:1026F000005008B9002DF7D1C5B9FFF706F904203D
:1027000077E6000000800140200000202200002029
:102710002100002023000020000402400C140020AF
:1027200018000020F81300201C0000204FF0FF3597
:1027300000E06D1EC448007820B9C448007808B98C
:10274000002DF6D10DB9042053E6C048007810B131
:10275000BE4800784DE640F2FF5002F0F4FD02A8BA
:10276000FFF72DFC064603E002A8FFF728FC06460B
:102770003EB99DF808000728F6D09DF80800062805
:10278000F2D0304635E610B5B148406B00F48070A9
:1027900070B3B0480078012814D10020AE49086019
:1027A0000C204860402088600020C8604FF48060A2
:1027B0000861084602F046FD0C20FEF749FBA349DC
:1027C000087002E00020A1490870A148806B40F425
:1027D00080709F4988630846C06B4CF23A31884349
:1027E0009B49C8630120984908709848007810BD3B
:1027F000022002F09EFD68B1022002F0A4FD944880
:10280000C06B4CF23A3188439149C86302208F492A
:102810000870ECE7082002F08CFD68B1082002F097
:1028200092FD8B48C06B4CF23A3188438849C863AB
:10283000042086490870DAE7202002F07AFD68B1AA
:10284000202002F080FD8248C06B4CF23A31884370
:102850007F49C86306207D490870C8E7102002F050
:1028600068FD68B1102002F06EFD7948C06B4CF233
:102870003A3188437649C863052074490870B6E741
:102880004FF4007002F055FD70B14FF4007002F08B
:102890005AFD6F48C06B4CF23A3188436C49C863AB
:1028A00007206A490870A2E70020A0E710B5FFF7EB
:1028B0006AFF10BD70B50446002514B926252846C8
:1028C00070BD664800880004634908600D204860B8
:1028D000402088600020C8604FF48060086108468E
:1028E00002F0B0FC0D20FEF7B3FA05460DB1284604
:1028F000E6E75748406920602846E1E708B5002030
:1029000000906846FFF7D6FF08B1FF2008BD009889
:10291000C0F34320FAE72DE9FE4F83460E46914669
:1029200000200290002534464D48007818B1680216
:1029300040EAD45564020BF00300F0B14FF0000AF6
:1029400018E04FF4007000904FEA4A20071945EB59
:10295000E0733A464348FFF7A7F802904FF400723D
:102960004049584611F05DFB0BF5007B0AF1010070
:1029700000F0FF0ACA45E4DB16E0B9F1010F09D106
:102980004FF4007022462B4600905846FFF78CF813
:10299000029009E04FF4007022462B46CDE9000971
:1029A0005846FFF799F902900298BDE8FE8F2DE98D
:1029B000FE4F0646894692460020029000254C466E
:1029C0002748007818B1680240EAD455640206F03E
:1029D0000300F0B14FF0000B18E04FF400723146E5
:1029E000204811F01EFB4FF4007000904FEA4B207E
:1029F000071945EBE0733A461A48FFF727FB0290A8
:102A000006F500760BF1010000F0FF0BD345E4DB87
:102A100016E0BAF1010F09D14FF4007022462B469F
:102A200000903046FFF712FB029009E04FF400706F
:102A300022462B46CDE9000A3046FFF7C3FC029040
:102A40000298BDE8FE8F0000230000202200002035
:102A50000080014021000020F81300201C0000200D
:102A600018000020A014002010B500240020CE493A
:102A70000860902000F0A8F9002000F0A5F90020DF
:102A800000F0A2F9002000F09FF9FF2000F09CF96F
:102A900044EA0024FF2000F097F904430120C349D1
:102AA000C1F8B001204610BD10B5C148806940F0A2
:102AB0000800BF498861BF48006820F47020BD4904
:102AC00008600846006840F4403008600120B649BC
:102AD000086000F0A2F9002000F0F2F9FFF7C4FF4F
:102AE000B549088010BD10B500240020AE4908602B
:102AF000052000F069F9FF2000F066F90446012086
:102B0000AA49C1F8B001204610BD10B50446002006
:102B1000A5490860012000F057F9204600F054F95B
:102B20000120A249C1F8B00110BD10B500209E4996
:102B30000860062000F048F901209C49C1F8B00166
:102B400010BD10B5002098490860042000F03CF941
:102B500001209649C1F8B00110BD2DE9F0410646AB
:102B60000C461746002090490860032000F02CF91D
:102B7000C4F3074000F028F9C4F3072000F024F95B
:102B8000E0B200F021F9002505E0FF2000F01CF97B
:102B90007055681C85B2BD42F7DB01208249086090
:102BA000BDE8F08110B500BFFFF79DFF00F0010008
:102BB0000028F9D110BD2DE9F04106460C46174614
:102BC000FFF7B3FF002078490860022000F0FCF80E
:102BD000C4F3074000F0F8F8C4F3072000F0F4F85D
:102BE000E0B200F0F1F8002504E0705D00F0ECF8D0
:102BF000681C85B2BD42F8DB01206B490860FFF715
:102C0000D1FFBDE8F0812DE9F04107460E4614469C
:102C1000F0B2C0F58075AC4200DC254612E02A46D1
:102C200031463846FFF7C7FFAC4200D10BE02F44D6
:102C30002E44601B84B2B4F5807F02DD4FF48075B2
:102C400000E02546EBE700BFBDE8F08110B5044683
:102C500021465AA010F0FCFF2403FFF766FFFFF7A0
:102C6000A1FF002050490860202000F0ADF8C4F317
:102C7000074000F0A9F8C4F3072000F0A5F8E0B27F
:102C800000F0A2F801204949C1F8B001FFF78AFF1E
:102C900010BD2DE9F05F81460F461646DFF824B1DE
:102CA0004FEA1738C7F30B0ACAF58054A64200DC76
:102CB000344644E04FEA08314FF480525846FFF75B
:102CC0004CFF002508E00AEB05001BF80000FF2878
:102CD00000D003E0681C85B2A542F4DB00BFA5422A
:102CE00016DA4046FFF7B2FF002507E019F80500A5
:102CF00005EB0A010BF80100681C85B2A542F5DB63
:102D00004FEA08314FF480525846FFF77CFF04E049
:102D1000224639464846FFF776FFA64200D10FE02B
:102D200008F101084FF0000AA1442744301B86B285
:102D3000B6F5805F02DD4FF4805400E03446B9E719
:102D400000BFBDE8F09F10B5FFF7EFFEFFF72AFFC9
:102D5000002015490860C72000F036F8012013490B
:102D6000C1F8B001FFF71EFF10BD10B500200E49DD
:102D70000860B92000F028F801200C49C1F8B00122
:102D8000032000F0E9FB10BD10B5002006490860E3
:102D9000AB2000F019F801200449C1F8B00103206C
:102DA00000F0DAFB10BD0000B0812142008021421A
:102DB00000100240040C01402800002066653A25FE
:102DC000780D0A00A01600200246002107E0481CEA
:102DD00081B24FF6FE70814201DB0020704743480C
:102DE000008800F002000028F1D04048001D028059
:102DF000002107E0481C81B24FF6FE70814201DBE2
:102E00000020EBE73948008800F001000028F1D0ED
:102E10003648001D0088C0B2E0E700B5344880693C
:102E200040F00800324988610846C06940F480409B
:102E3000C86130480068C0F313002E490860084696
:102E400000682D4908432B4908602A48083000686B
:102E500040F4604027490831086024480838008859
:102E60002249083908800846008840F4007008802C
:102E70000846008840F4807008800846008840F0CA
:102E8000040008800846008808800846008840F052
:102E9000020008800846008840F0010008800846CB
:102EA000008840F01800088008460088088008461E
:102EB000008840F040000880FF20FFF785FF00BD3C
:102EC00000F007000949083909884FF6C772114018
:102ED000064A083A11801146098841EAC00111806A
:102EE0001146098841F040011180704708380040C0
:102EF00000100240040C01400000B0BB08B50121E5
:102F00004FF48C7001F0DEF90420ADF800001020C1
:102F10008DF8030003208DF8020069462F4800F069
:102F200011FD4FF44070ADF8000069462C4800F0E8
:102F300009FD4FF48050ADF800006946284800F0C4
:102F400001FDC020ADF800006946244800F0FAFCFD
:102F50004FF48070ADF800006946224800F0F2FCA2
:102F600004211E4800F09DFD4FF498511C4800F0CC
:102F700098FDC021194800F094FD4FF48071194864
:102F800000F08FFD08BD00BFFEE710B58AB0044613
:102F90000321002220680592CDE906210890104601
:102FA00080210C22104BCDE90132CDE90310032022
:102FB0000023AFF22D020DA10090114808F0AEFEE3
:102FC0000AB010BD014619B900200E4A106002E097
:102FD00001200C4A106001207047000000100140E1
:102FE000000C0140002001406427002061637175DE
:102FF00069736974696F6E207461736B00000000FF
:10300000A0260020A081214270B500208D490860D3
:10301000012000F0A1FA002517E001208A4908608C
:103020006006040E8948D0F8980110B144F00104FC
:1030300001E004F0FE04012000F08EFA0020824935
:103040000860012000F088FA6D1C082DE5DB0120E6
:103050007C49086000F080FA204670BD70B50546D6
:1030600000207849086005F0800018B101207849F7
:10307000086002E0002076490860012000F06CFA48
:10308000012417E001207049086000F065FA05FA94
:1030900004F000F0800018B101206D49086002E0E2
:1030A00000206B490860002067490860012000F09B
:1030B00053FA641C082CE5DB01206349086000F02A
:1030C0004BFA00206349C1F8A001012000F044FA46
:1030D00001205C49086000F03FFA70BD70B5002027
:1030E000FFF7BCFFFFF790FF0446FFF78DFF054693
:1030F000FFF78AFF0646FFF787FF33462A46214639
:1031000055A010F0A5FD70BD2DE9F84301205049F0
:103110001439086000F04BFA01205449C1F8B0019D
:10312000022000F044FA0020474908604F49C1F8E6
:10313000B001022000F03BFA002045490860012060
:103140004249C1F89801022000F031FA002403E05E
:10315000FF20FFF783FF641C1F2CF9DBFE20FFF725
:103160007DFF022000F023FA0320FFF777FF2020E5
:10317000FFF774FF0020FFF771FF0020FFF76EFFDD
:103180000020FFF76BFF142000F011FAFFF73CFF5F
:103190008046FFF739FF0646FFF736FF0746FFF781
:1031A00033FF05463B463246414631A0009510F0BC
:1031B0004FFD33A010F04CFD0520FFF74FFF3220EC
:1031C000FFF74CFF3420FFF749FF0020FFF746FFD1
:1031D0000020FFF743FF0320FFF740FF4020FFF7E9
:1031E0003DFF0020FFF73AFF0020FFF737FF0020E8
:1031F000FFF734FF0320FFF731FFC020FFF72EFF5A
:103200000020FFF72BFF0020FFF728FF0020FFF72B
:1032100025FF0320FFF722FF0120FFF71FFF80207B
:10322000FFF71CFF0020FFF719FF0020FFF716FF34
:10323000C020FFF713FF012000F0B9F9FFF74EFFA0
:10324000BDE8F883B0812142A0012442000022425F
:103250009C01224200002442256420202020256475
:103260002020202025640D0A00000000008021425B
:10327000256420202564202025642020256400006A
:10328000E5AE8CE68890E5889DE5A78BE58C965C9D
:10329000720A000070B503460C4603E014F8015BA7
:1032A00003F8015B151EA2F10102F7D170BD30B524
:1032B000034601E003F8011B141EA2F10102F9D13B
:1032C00030BD10B504467A4951F824104A007949B6
:1032D00051F824000021FFF7EAFF774951F8242034
:1032E0007449083951F824000021FFF7E0FF01215B
:1032F00070480830015510BD10B50146002300226A
:1033000007E06C4850F8210030F8120000B15B1C57
:10331000521C674850F821009042F2D8642058436C
:10332000634C54F82140B0FBF4F0C0B210BD2DE95D
:10333000F04704460F460025A9465E480830005D68
:1033400020B95C4810380168204688471FB94FF003
:10335000FF30BDE8F087594850F82400B7FBF0F67D
:10336000564850F82400B7FBF0F100FB117000B193
:10337000761C4F4850F82400451E20E04D4850F878
:10338000240030F8150010B909F1010901E04FF0EF
:103390000009B14512D14FF0000808E0454850F847
:1033A000240005EB080220F8126008F10108B0457E
:1033B000F4D3424850F824006843CAE76D1E002D3C
:1033C000DCDA4FF0FF30C4E72DE9F04104460E4649
:1033D00038480830005D38B9364810380168204652
:1033E00088470120BDE8F081334850F82400B042FE
:1033F00017D9324850F82400B6FBF0F12D4850F8A8
:10340000240030F81120002507E00023294850F857
:1034100024004F1920F817306D1C9542F5DB002071
:10342000E0E70220DEE770B505460C4604B970BD42
:103430002048083850F82500261A31462846FFF75C
:10344000C3FF00BFF3E770B504460E463146204681
:10345000FFF76DFF0546681C08B9002070BD1548D0
:10346000083850F824002844F8E72DE9F0410446D4
:103470000F46164631462046FFF759FF0546681CA1
:1034800010B90020BDE8F0810A49083951F824102C
:10349000481932463946FFF7FDFE39462046FFF708
:1034A000C2FF0448083850F824002844EAE7000026
:1034B000645401083C000020745401086C54010855
:1034C00008B5684604F008F808BD08B5684604F079
:1034D0004DF808BD38B504466A46082120460AF072
:1034E00033FB38BD10B542480078012805D103F000
:1034F00039FF0AF0B5FD03F046FF10BD10B56FF0BF
:10350000040000F0A0F93B4800683B49B0FBF1F033
:103510003A490870374800683749B0FBF1F4384839
:103520000068C910B1FBF0F04443354800684FF41F
:103530007A71B1FBF0F0334908804FF0E020006968
:1035400040F002004FF0E021086108464461006944
:1035500040F00100086110BD2DE9F0470746002644
:103560004FF0E020D0F814902448007807FB00F8D2
:1035700000BFFFF7A5FF4FF0E020856911E04FF095
:10358000E0208469AC420CD0AC4202D2281B064435
:1035900003E0A9EB0400284406442546464500D331
:1035A00000E0ECE700BFFFF790FFBDE8F08770B5E3
:1035B00004460F480078A0B11348007888B9114834
:1035C0000088844206DB0F48008894FBF0F528460B
:1035D000FFF780FF0B48008894FBF0F100FB1140DF
:1035E00084B24FF47A7104FB01F0FFF7B5FF70BDB0
:1035F000990000200000002000127A0048000020FE
:10360000745601084A0000209800002030BF70471F
:1036100072B6704762B67047014600BF704700BF80
:103620004D4A128802F04002002AF9D0C2B24A4B39
:103630001B1D1A80704710B586B00446012144F264
:10364000040000F03FFE444800F0CAFA4FF4007056
:10365000ADF8140003208DF8160018208DF817001F
:1036600005A93E4800F06EF94FF48060ADF81400F3
:1036700004208DF8170005A9384800F063F92520CB
:103680008DF8000003208DF801008DF80200012064
:103690008DF80300684600F08CF801940020ADF826
:1036A0000800ADF80A00ADF80C00ADF810000C20D1
:1036B000ADF80E0001A9284800F0D5FA012240F229
:1036C0002551254800F067FB0121234800F057FBF6
:1036D00006B010BD10B503F045FE40F225511E485E
:1036E00000F03EFC10B31C4800F0BAFBC4B21C480A
:1036F000008800F40040C8B91948008800F48040F0
:1037000060B10A2C03D000201549088020E014483D
:10371000008840F400401249088019E00D2C06D1C1
:103720000F48008840F480400D49088010E00C48A4
:103730000088C0F30D000B490C5409480088401C58
:103740000749088008460088C72801DD0020088056
:1037500003F019FE10BD00000038014000080140D0
:103760005000002080D300200948804709480047C6
:10377000FEE7FEE7FEE7FEE7FEE7FEE7FEE7FEE721
:10378000FEE7FEE704480549054A064B704700007E
:10379000AB03000831010008B8F40020B8FA00209B
:1037A000B8F60020B8F6002031490143314A1160D3
:1037B000704770B5002100230F22C47804B32D4C4C
:1037C000246804F4E064C4F5E064210AC1F1040350
:1037D000CA40447804FA03F1847814402143090173
:1037E000254C0678A155047804F01F050124AC404F
:1037F00005786D11AD0005F1E025C5F8004109E03F
:10380000047804F01F050124AC401C4D06787611A5
:1038100045F8264070BD1A4A0A400243154B1B1F4B
:103820001A60704739B1134A121D12680243114BD6
:103830001B1D1A6006E00F4A121D126882430D4BD1
:103840001B1D1A607047042808D14FF0E021096958
:1038500041F004014FF0E022116107E04FF0E02158
:10386000096921F004014FF0E02211617047000066
:103870000000FA050CED00E000E400E080E100E06B
:1038800080FFFF1F10B50446CC48844208D10121B7
:10389000042000F031FD0021042000F02DFD46E061
:1038A000C748844208D10121082000F025FD0021ED
:1038B000082000F021FD3AE0C248844208D10121ED
:1038C000102000F019FD0021102000F015FD2EE061
:1038D000BD48844208D10121202000F00DFD0021C7
:1038E000202000F009FD22E0B848844208D10121DF
:1038F000402000F001FD0021402000F0FDFC16E01A
:10390000B348844208D10121802000F0F5FC002159
:10391000802000F0F1FC0AE0AE48844207D101218A
:10392000801500F0E9FC0021A01500F0E5FC10BDB9
:1039300010B50121084600F0DFFC0021012000F055
:10394000DBFC10BD2DE9F0410246002500260020D9
:1039500000230024002791F803C00CF00F0591F814
:1039600003C00CF0100CBCF1000F03D091F802C0A2
:103970004CEA050591F800C0BCF1000F31D0146885
:1039800000202BE04FF0010C0CFA00F3B1F800C05E
:103990000CEA03069E4220D183004FF00F0C0CFA74
:1039A00003F7BC4305FA03FC4CEA040491F803C096
:1039B000BCF1280F06D14FF0010C0CFA00FCC2F844
:1039C00014C00AE091F803C0BCF1480F05D14FF0D4
:1039D000010C0CFA00FCC2F810C0401C0828D1D31E
:1039E0001460B1F800C0BCF1FF0F34DD5468002052
:1039F0002EE000F1080C4FF0010808FA0CF3B1F8C2
:103A000000C00CEA03069E4221D183004FF00F0C48
:103A10000CFA03F7BC4305FA03FC4CEA040491F8E2
:103A200003C0BCF1280F05D100F1080C08FA0CF80E
:103A3000C2F8148091F803C0BCF1480F07D100F11F
:103A4000080C4FF0010808FA0CF8C2F81080401C6E
:103A50000828CED35460BDE8F0814FF6FF71018095
:103A6000022181700421C1707047024600209368D2
:103A70000B400BB1012000E0002070470146886830
:103A800080B2704702460020D3680B400BB1012082
:103A900000E0002070470146C86880B270470161AD
:103AA0007047416170470AB1016100E041617047B0
:103AB000C16070474FF480320A4382618161826144
:103AC00082698269704702460020434B18684FF6AE
:103AD0008073184040EA021008433F4B186070475B
:103AE0003E49C8617047F0B50A4600230024002112
:103AF000002500F00046B6F1004F02D1364EF169C4
:103B000001E0354E7168C0F3034583B200F44016FE
:103B1000B6F5401F08D121F070612F4E766826F06F
:103B200070662D4F7E6012E000F48016B6F5801F9F
:103B300006D1032606FA05F4A14341F0706106E0C0
:103B4000460D360103FA06F6B14341F0706122B129
:103B5000460D360103FA06F6314300F00046B6F191
:103B6000004F02D11C4EF16101E01B4E7160F0BDAF
:103B700030B500228B071C0F0F2303FA04F2164BFB
:103B800008338C1053F824309343134C08348D10B1
:103B900044F8253023468C1053F824308C07240F2A
:103BA00000FA04F423430C4C08348D1044F82530FB
:103BB00030BD0A49DC310860704700000008014050
:103BC000000C0140001001400014014000180140A9
:103BD000001C014000200140000001400000204284
:103BE00010B50446FB48844209D10121880300F046
:103BF00083FB00214FF4804000F07EFB32E0F6486A
:103C0000844209D10121480400F083FB00214FF4D4
:103C1000003000F07EFB25E0F048844209D101210C
:103C2000880400F076FB00214FF4802000F071FB47
:103C300018E0EB48844209D10121C80400F069FB77
:103C400000214FF4002000F064FB0BE0E5488442C3
:103C500008D10121080500F05CFB00214FF4801021
:103C600000F057FB10BD2DE9F04786B005460E4623
:103C70000024A24600BFA1460027B08900B100BFC2
:103C80002F462C8A4CF6FF700440F08804432C82A7
:103C9000AC894EF6F3100440B0883189084371892D
:103CA00008430443AC81AC8A4FF6FF400440B0891E
:103CB0000443AC8201A800F098FAC648874202D1BA
:103CC000DDF810A001E0DDF80CA0A88900F40040A8
:103CD00040B10AEBCA0000EB0A1031684900B0FBA2
:103CE000F1F807E00AEBCA0000EB0A10316889001E
:103CF000B0FBF1F86420B8FBF0F004012009642166
:103D000001FB1089A88900F4004040B1322000EB8B
:103D1000C900B0FBF1F000F00700044308E03220D6
:103D200000EB09106421B0FBF1F000F00F00044338
:103D30002C8106B0BDE8F0874FF4165101600021D8
:103D40008180C18001810C214181002181817047E6
:103D500010B502460020108A4FF2FF0318400B886E
:103D60004C8823438C882343CC88234318431082F8
:103D700010BD0021018041808180C180704721B148
:103D8000828942F40052828104E082894DF6FF73F9
:103D90001A4082817047F0B50346002400260025B2
:103DA000002040F66A17B94200D100BF1846C1F39F
:103DB000421401F01F06012707FA06F5012C01D174
:103DC0000C3004E0022C01D1103000E014301AB1A4
:103DD00007682F43076002E00768AF430760F0BD44
:103DE0001AB1838A0B43838202E0838A8B438382E6
:103DF0007047028A4FF6F0731A400282028A0A4321
:103E00000282704782894FF2FF731A408281828951
:103E10000A438281704721B1828942F00202828185
:103E200004E082894FF6FD731A4082817047028A4E
:103E30004FF6DF731A400282028A0A4302827047F9
:103E400021B1028A42F48042028204E0028A4BF6E7
:103E5000FF731A4002827047C1F3080282807047E4
:103E600001468888C0F308007047818941F001014C
:103E700081817047028BD2B20283028B42EA012217
:103E800002837047028B02F47F420283028B0A4353
:103E90000283704721B1828A42F02002828204E0CC
:103EA000828A4FF6DF731A408282704721B1828A7C
:103EB00042F01002828204E0828A4FF6EF731A40C9
:103EC0008282704721B1828A42F00802828204E035
:103ED000828A4FF6F7731A408282704721B1828935
:103EE00042F40042828103E08289C2F30E028281A1
:103EF000704721B1828A42F40062828204E0828AA1
:103F00004FF2FF731A4082827047828A4FF6FB732A
:103F10001A408282828A0A438282704721B1828A51
:103F200042F00202828204E0828A4FF6FD731A4058
:103F30008282704702460020B1F5007F00D100BFA9
:103F400013880B400BB1012000E00020704701F402
:103F50000072B2F5007F00D100BFCA4302807047F3
:103F600070B50246002400230025002040F66A16A2
:103F7000B14200D100BFC1F3421501F01F03012679
:103F800006FA03F3012D02D19689334006E0022D93
:103F900002D1168A334001E0968A33400C12012682
:103FA00006FA04F41688344013B10CB1012000E085
:103FB000002070BD10B50022002340F66A14A14213
:103FC00000D100BF0A1201249440A3B2DC43048054
:103FD00010BD00000038014000440040004800408F
:103FE000004C004000500040DF48006840F00100F5
:103FF000DD49086008464068DC490840DA49486005
:1040000008460068DA490840D74908600846006851
:1040100020F4802008600846406820F4FE004860D4
:104020004FF41F0088607047CF49096821F4803140
:10403000CD4A11601146096821F480211160B0F564
:10404000803F03D0B0F5802F0ED106E0C649096845
:1040500041F48031C44A116007E0C349096841F462
:10406000A021C14A116000E000BF00BF704710B539
:1040700001460022002300204A11012A02D1BA4C35
:10408000236806E0022A02D1B74C236A01E0B64C4D
:10409000636A01F01F02012494401C400CB101200E
:1040A00000E0002010BD38B500200090002400255D
:1040B00000BF3120FFF7DBFF05460098401C009051
:1040C0000098B0F5A06F01D0002DF2D03120FFF79D
:1040D000CEFF08B1012400E00024204638BD01468F
:1040E0000020A14A106820F0F80040EAC1001060EA
:1040F0007047A04908607047024600209A4B5868F4
:1041000020F47C1042EA01031843974B5860704733
:1041100098490866704701460020934A506820F08D
:1041200003000843506070478F48406800F00C005F
:104130007047014600208C4A506820F0F000084388
:104140005060704701460020874A506820F4E060C4
:1041500008435060704701460020834A506820F4AD
:10416000605040EAC1005060704729B17E4A527ADF
:1041700002437D4B5A7204E07B4A527A82437A4B67
:104180005A7270477B49D831086070470146002059
:10419000754A506820F44040084350607047002141
:1041A000714A20321170704A82F82010012802D022
:1041B00004280AD104E001216B4A2032117005E085
:1041C0000521694A2032117000E000BF00BF70472E
:1041D0006949086070476449096A0143624A11628B
:1041E0007047654944390860704730B500210022A6
:1041F000002400235C4D6D6805F00C0121B10429F9
:1042000005D0082923D105E05C4D056022E05B4D17
:1042100005601FE0544D6D6805F47012524D6D68D5
:1042200005F48034022505EB92421CB9544D5543E8
:1042300005600BE04C4D6D6805F400351DB1504D27
:104240005543056002E04D4D5543056002E04B4D7E
:10425000056000BF00BF444D6D6805F0F00109091D
:10426000484D6B5C0568DD4045603F4D6D6805F469
:10427000E061090A434D6B5C4568DD4085603A4D5D
:104280006D6805F46051C90A3E4D6B5C4568DD40C0
:10429000C560354D6D6805F44041890B3A4D6B5C46
:1042A000C568B5FBF3F5056130BD29B12E4A5269E9
:1042B00002432D4B5A6104E02B4A526982432A4B38
:1042C0005A61704729B1284A92690243264B9A6184
:1042D00004E0254A92698243234B9A61704729B1D1
:1042E000214AD2690243204BDA6104E01E4AD269B6
:1042F00082431D4BDA61704729B11B4AD2680243E1
:10430000194BDA6004E0184AD2688243164BDA602F
:10431000704729B1144A12690243134B1A6104E031
:10432000114A12698243104B1A6170471249403991
:10433000086070470F49C86470470B49C8717047DF
:104340000948406A40F0807007494862704701465A
:104350000020054A92680A400AB1012000E00020CE
:104360007047014988727047001002400000FFF852
:10437000FFFFF6FE000042428004424200127A0033
:1043800000093D00520000206200002010B50446E4
:10439000FE48844208D10121C014FFF7ADFF00217F
:1043A000E014FFF7A9FFC4E0B4F1804F08D1012168
:1043B0000846FFF7AEFF00210120FFF7AAFFB8E093
:1043C000F348844208D101210220FFF7A2FF002117
:1043D0000220FFF79EFFACE0EE48844208D10121A5
:1043E0000420FFF796FF00210420FFF792FFA0E0D2
:1043F000E948844208D101210820FFF78AFF002103
:104400000820FFF786FF94E0E448844208D10121A8
:104410001020FFF77EFF00211020FFF77AFF88E0D1
:10442000DF48844208D101212020FFF772FF0021DC
:104430002020FFF76EFF7CE0DA48844208D101219A
:104440004014FFF759FF00216014FFF755FF70E09B
:10445000D548844209D10121C804FFF74DFF00214E
:104460004FF40020FFF748FF63E0D048844209D1B1
:1044700001210805FFF740FF00214FF48010FFF7EE
:104480003BFF56E0CA48844209D101214805FFF7A5
:1044900033FF00214FF40010FFF72EFF49E0C5481D
:1044A000844208D101214020FFF733FF0021402042
:1044B000FFF72FFF3DE0C048844208D10121802052
:1044C000FFF727FF00218020FFF723FF31E0BB48E3
:1044D000844208D101218015FFF71BFF0021A015A0
:1044E000FFF717FF25E0B648844209D101210804EF
:1044F000FFF702FF00214FF48030FFF7FDFE18E0C8
:10450000B048844209D101214804FFF7F5FE00219B
:104510004FF40030FFF7F0FE0BE0AB48844208D1C7
:1045200001218804FFF7E8FE00214FF48020FFF707
:10453000E3FE10BD00220288944B98420ED0994BA6
:1045400098420BD0B0F1804F08D0914B984205D0E3
:10455000904B984202D0904B984204D14FF68F7303
:104560001A404B881A438D4B984207D08C4B984287
:1045700004D04FF6FF431A40CB881A4302808B8841
:1045800083850B880385814B98420BD0854B9842DD
:1045900008D08B4B984205D08A4B984202D08A4B68
:1045A000984201D10B7A038601238382704770B54C
:1045B000002400220023058C4FF6FE76354005844A
:1045C000028C8388048B4FF68F752C40B51E2C40CF
:1045D0000D882C43751E2A400D892A434D882A4395
:1045E0006A4DA8420BD06F4DA84208D0744DA84226
:1045F00005D0744DA84202D0734DA84213D14FF696
:10460000F7752A404D892A434FF6FB752A408D885D
:104610002A434FF6FF652B404FF6FF552B408D89FF
:104620002B43CD892B4383800483CD8885860284E8
:1046300070BD70B5002400220023058C4FF6EF7684
:1046400035400584028C8388048B48F6FF752C4026
:104650004FF6FF452C400D884FF6FF7606EA0525FC
:104660002C434FF6DF752A400D8906EA05152A43CB
:104670004D8806EA05152A43444DA84202D0494D0B
:10468000A8421DD14FF67F752A404D894FF6FF761F
:1046900006EA05152A434FF6BF752A408D8806EABB
:1046A00005152A434FF6FF352B404FF2FF752B407F
:1046B0008D8906EA85052B43CD8906EA85052B43BE
:1046C00083800483CD880587028470BD70B5002483
:1046D00000220023058C4FF6FF6635400584028CCE
:1046E0008388848B4FF68F752C404FF6FC752C40D9
:1046F0000D882C434FF6FF552A400D894FF6FF7663
:1047000006EA05252A434D8806EA05252A431F4D5A
:10471000A84202D0234DA8421DD14FF2FF752A4076
:104720004D894FF6FF7606EA05252A434FF6FF35F9
:104730002A408D8806EA05252A434EF6FF752B4050
:104740004DF6FF752B408D8906EA05152B43CD8963
:1047500006EA05152B4383808483CD8885870284F0
:1047600070BD70B5002200230024058C4EF6FF7644
:1047700035400584038C8488828B48F6FF752A4077
:104780004FF6FF452A400D8820E00000002C014034
:104790000004004000080040000C004000100040F1
:1047A0000014004000340140004C01400050014022
:1047B0000054014000180040001C00400020004050
:1047C0000040014000440140004801404FF6FF76A0
:1047D00006EA05252A434DF6FF752B400D8906EAAA
:1047E00005352B434D8806EA05352B43FA4DA84283
:1047F00002D0FA4DA84208D14BF6FF752C408D89A6
:104800004FF6FF7606EA85152C4384808283CD8897
:10481000A0F84050038470BD828B4FF2FF331A40E2
:104820008283828B4FF6FF7303EA01231A4382834C
:104830007047F0B50C461546002200210026078C73
:104840004EF6FF7C07EA0C070784828B018C4FF63B
:10485000FF7707EA043640F6FF473A404FF6FF7706
:1048600007EA05273A434FF6FF7707EA03373A434B
:10487000D94FB8420ED0D94FB8420BD0B0F1804FCB
:1048800008D0D74FB84205D0D64FB84202D0D64F45
:10489000B84206D14DF6FF77394046F48057394388
:1048A00005E047F6FF57394044F480573943828387
:1048B0000184F0BD828B4FF6F3731A408283828BA2
:1048C0000A4382837047F0B50C461546002200214A
:1048D0000026078C4FF6FF6C07EA0C070784828BD3
:1048E000018C4FF6FF7707EA04264FF60C773A4023
:1048F0004FF6FF7707EA03172F433A43B64FB84204
:104900000ED0B64FB8420BD0B0F1804F08D0B44FA4
:10491000B84205D0B34FB84202D0B34FB84206D127
:104920004FF6FF57394046F48077394305E04FF2A0
:10493000FF57394044F48077394382830184F0BDC6
:10494000028B4FF2FF331A400283028B4FF6FF7344
:1049500003EA01231A4302837047F0B50C4615465B
:10496000002200210026078C4FF6EF7C07EA0C0797
:104970000784028B018C4FF6FF7707EA041640F696
:10498000FF473A404FF6FF7707EA03373A434FF6BF
:10499000FF7707EA05273A438F4FB8420ED08F4F73
:1049A000B8420BD0B0F1804F08D08D4FB84205D03F
:1049B0008C4FB84202D08C4FB84206D14FF6DF7709
:1049C000394046F01007394305E04FF65F7739402C
:1049D00044F01007394302830184F0BD028B4FF687
:1049E000F3731A400283028B0A4302837047F0B5C7
:1049F0000C46154600220021068C4FF6FE773E40FD
:104A00000684028B018C4FF60C7632407E1C06EA3F
:104A100003162E433243704EB0420ED06F4EB0425A
:104A20000BD0B0F1804F08D06D4EB04205D06D4E26
:104A3000B04202D06C4EB04206D14FF6FD76314006
:104A400044F00106314305E04FF6F576314044F07D
:104A50000106314302830184F0BD70B505460C4662
:104A60005D4885420ED05D4885420BD0B5F1804F40
:104A700008D05B48854205D05A48854202D05A4842
:104A8000854200D100E000BF208850B92389A28868
:104A900061882846FFF7ABFFE1882846FFF79EFFB5
:104AA00025E0208804280AD12389A2886188284625
:104AB000FFF753FFE1882846FFF742FF17E0208801
:104AC00008280AD12389A28861882846FFF7FBFEBF
:104AD000E1882846FFF7EEFE09E02389A288618875
:104AE0002846FFF7A6FEE1882846FFF795FE70BD31
:104AF0002DE9F04105460C4600260127608808B9DB
:104B0000022600E00026A088012801D1022700E04B
:104B100001272088A0B92389A28861882846FFF749
:104B200066FFE1882846FFF759FF23893A46314658
:104B30002846FFF712FFE1882846FFF701FF13E040
:104B40002389A28861882846FFF707FFE188284665
:104B5000FFF7F6FE23893A4631462846FFF747FF1E
:104B6000E1882846FFF73AFFBDE8F0810A884B88C4
:104B70001A438B881A43CB881A430B891A434B89F3
:104B80001A438B891A43A0F8442070474FF6FF71EF
:104B9000818000210180C180418001727047002125
:104BA000018041808180C180018141818181C181F9
:104BB0007047002101804180012181800021C18056
:104BC000018170470021018041808180C180018185
:104BD0004181818170470000002C01400034014078
:104BE0000004004000080040000C004021B1028891
:104BF00042F00102028004E002884FF6FE731A4080
:104C00000280704731B1B0F8442042F40042A0F86D
:104C1000442005E0B0F84420C2F30E02A0F844207E
:104C200070471AB183890B43838102E083898B43E8
:104C3000838170478182704741EA0203A0F84830BF
:104C400070471AB183890B43838102E083898B43C8
:104C50008381704701894FF6F872114001817047D6
:104C60000A46002101894FF68F73194011430181D3
:104C7000704730B504460D4629462046FFF7F0FF41
:104C8000208940F00700208130BD2DE9F041044625
:104C90000D4616461F46602D06D13B460122314681
:104CA0002046FFF75AFE05E03B46012231462046EA
:104CB000FFF79DFE29462046FFF7D2FF208940F0EE
:104CC00007002081BDE8F08130B50C460021018944
:104CD000C9B24FF6FF7505EA03251543254329435D
:104CE000018130BD2DE9F04105460E461746984634
:104CF000002443463A4631462846FFF7E5FF2C8913
:104D00004FF6F870044044F007044FF68F700440EB
:104D100044F070042C81BDE8F081F0B504460D46E6
:104D200016461F463B46324629462046FFF7CCFF33
:104D3000208940F480402081F0BD01858282704747
:104D40000A46002101884FF68F73194011430180F4
:104D50007047F0B50C4615461E4600210022002380
:104D60000189028B038C4FF6F877394021434FF6C7
:104D7000FC473A4040F201173A434FF6DD773B409B
:104D80004FF6FF7707EA06172F433B430181028363
:104D90000384F0BD0A460021018B4FF68F73194042
:104DA0001143018370470A460021018B48F6FF73C7
:104DB00019404FF6FF7303EA02231943018370473A
:104DC0000A460021818B4FF68F731940114381836E
:104DD00070470A460021818B48F6FF7319404FF651
:104DE000FF7303EA022319438183704721B10288CC
:104DF00042F08002028004E002884FF67F731A407E
:104E00000280704721B1828842F00402828004E06F
:104E100082884FF6FB731A408280704721B18288E6
:104E200042F00802828004E082884FF6F7731A404D
:104E30008280704721B1828842F00102828004E0C2
:104E400082884FF6FE731A40828070470A4600211E
:104E5000018B4FF6F77319401143018370470A46DF
:104E60000021018B4FF2FF7319404FF6FF7303EAE5
:104E700002231943018370470A460021818B4FF6B4
:104E8000F77319401143818370470A460021818BD3
:104E90004FF2FF7319404FF6FF7303EA02231943E1
:104EA000818370470A460021018B4FF6FB7319403E
:104EB0001143018370470A460021018B4FF6FF33EF
:104EC00019404FF6FF7303EA022319430183704729
:104ED0000A460021818B4FF6FB73194011438183F1
:104EE00070470A460021818B4FF6FF3319404FF679
:104EF000FF7303EA02231943818370470A460021A6
:104F0000018B4FF67F7319401143018370470A46A6
:104F10000021018BC1F30E014FF6FF7303EA022358
:104F20001943018370470A460021818B4FF67F7336
:104F300019401143818370470A460021818BC1F3D8
:104F40000E014FF6FF7303EA022319438183704772
:104F50000A460021018C4FF6FD731940114301846C
:104F600070470A460021018C4FF6F7731940114330
:104F7000018470470A460021018C4FF6DF73194007
:104F80004FF6FF7303EA02131943018470470A4680
:104F90000021018C4FF67F7319404FF6FF7303EA2F
:104FA00002131943018470470A460021018C4FF611
:104FB000FF5319404FF6FF7303EA0223194301849C
:104FC00070470A460021018C4FF2FF7319404FF6DB
:104FD000FF7303EA02231943018470470A46002144
:104FE000018C4DF6FF7319404FF6FF7303EA02334D
:104FF00019430184704730B5002301248C40A3B2CB
:10500000048C9C430484048C02FA01F5ADB22C4359
:10501000048430BD30B5002304248C40A3B2048C3A
:105020009C430484048C02FA01F5ADB22C43048441
:1050300030BD70B503460020002418461830012505
:105040008D40ACB21D8CA5431D8409B1082909D13E
:1050500000EB6100056825F07005056005681543E3
:1050600005600EE00D1FC5F34E052844056825F4C4
:10507000E045056005684FF6FF7606EA02263543EF
:10508000056070BD21B1028842F00202028004E096
:1050900002884FF6FD731A400280704721B10288E2
:1050A00042F00402028004E002884FF6FB731A40CB
:1050B0000280704721B1828842F08002828004E041
:1050C00082884FF67F731A408280704702884FF6BD
:1050D000F7731A40028002880A4302807047828870
:1050E0004FF68F731A40828082880A43828070470D
:1050F00002894FF6F8731A40028102890A4302813D
:10510000704702894FF67F731A40028102890A4371
:10511000028170478184704781857047818670471E
:105120000187704781877047A0F840107047028858
:105130004FF6FF431A40028002880A4302807047FC
:105140000146888E70470146088F70470146888F58
:1051500070470146B1F8400070470146888C70479F
:105160000146088D704702460020138A0B400BB1A0
:10517000012000E000207047CA430282704730B52A
:105180000246002000230024158A05EA01039589C0
:1051900005EA010413B10CB1012000E0002030BD8C
:1051A000CA4302827047000000206F4908604860CF
:1051B0008860C86048628862C8626C488863002062
:1051C000C86370470021684A516847F6FF629143FF
:1051D000027D83681A4343681A43C3681A4303680D
:1051E0001A4303691A4311435F4A51607047002113
:1051F0000175016041608160C160016170475C4977
:10520000086070475849096821F00301564A116047
:10521000114609680143116070475348006800F067
:105220000300704729B1504AD26B02434E4BDA63F8
:1052300004E04D4AD26B82434B4BDA6370474D49D1
:10524000086070470021484B02689A601A46D1688E
:105250006FF30A01D0E901231A43C3681A430369B3
:105260001A431143404AD1607047002101604160F8
:105270008160C160016170473B480069C0B27047FE
:1052800008B50146002000903748143008440090CB
:105290000098006808BD0021334B02685A624268DA
:1052A0009A621A46D16A21F0F701D0E902231A4323
:1052B00003691A4343691A4311432B4AD162704769
:1052C0004FF0FF310160002141608160C1600161E8
:1052D000416170472448006B704723488030006864
:1052E000704721498031086070471F48806C7047C3
:1052F00020491431086070471E4918310860704712
:105300001C491C31086070471A49203108607047F9
:105310001949086070471849091D08607047012144
:105320008143154A08321160704713490C310860F7
:105330007047014600200C4A526B0A400AB1012016
:1053400000E000207047084988637047014600204C
:10535000054A526B0A400AB1012000E00020704764
:10536000014988637047000000800140FF07C000CA
:10537000A00030428C053042AC01304201684FF64B
:10538000FE72114001600021016041608160C160D6
:105390008D49884208D18C490839496841F00F018C
:1053A000894A083A51608AE087491431884208D115
:1053B00085490839496841F0F001834A083A51604B
:1053C0007DE081492831884208D17F490839496800
:1053D00041F470617C4A083A516070E07A493C318E
:1053E000884208D178490839496841F47041764AC1
:1053F000083A516063E074495031884208D17249DB
:105400000839496841F470216F4A083A516056E002
:105410006D496431884208D16B490839496841F4C3
:105420007001694A083A516049E067497831884219
:1054300008D165490839496841F07061624A083A03
:1054400051603CE06149884206D1011F096841F082
:105450000F01021F116032E05C491431884208D10B
:105460005A49091F096841F0F001584A121F11609A
:1054700025E056492831884208D15449091F096856
:1054800041F47061514A121F116018E04F493C31DC
:10549000884208D14D49091F096841F470414B4ABF
:1054A000121F11600BE049495031884207D147492A
:1054B000091F096841F47021444A121F11607047A6
:1054C00010B50022026847F6F0739A430C6A8B68A5
:1054D00023430C6923434C6923438C692343CC69E0
:1054E00023434C6A23438C6A23431A430260CB68EC
:1054F00043600B6883604B68C36010BD002101608E
:1055000041608160C160016141618161C16101628D
:1055100041628162704721B1026842F0010202607B
:1055200004E002684FF6FE731A40026070471AB139
:1055300003680B43036002E003688B43036070471A
:10554000416070470146486880B2704701460020BC
:10555000002201F080531BB11C4B083B1A6802E08B
:10556000194B083B1A6802EA01030BB1012000E065
:105570000020704700F0805119B11449091F0860DC
:1055800002E01149083948607047014600200022B6
:1055900001F080531BB10D4B083B1A6802E00A4B27
:1055A000083B1A6802EA01030BB1012000E0002069
:1055B000704700F0805119B10449091F086002E0EA
:1055C0000149083948607047080002400804024059
:1055D00000B585B06846FEF708FE019805B000BD2D
:1055E00010B5FFF7F5FF04461748006840F08070DB
:1055F000154908600020154948600846006840F0D9
:1056000001000860204600F0B6F810BD0F49486858
:1056100070472DE9F0478246FFF7DAFF4FF00009A7
:1056200080460B4A0023404649460EF064FA06467F
:1056300032460B46504600210EF05DFA04460D46F8
:1056400020462946BDE8F087FCED00E0001000E0B0
:1056500040420F0010B5002400BF00BF00F052F917
:10566000044600BF00BF1021A14800F0D2FA00BFDD
:1056700000BF204600F04AF900BF00BF10BD10B5C2
:10568000FFF7E8FF10BD10B500209A490860FFF74A
:10569000A7FF10BD10B5FFF7F6FFFFF7F0FF10BD35
:1056A00000BFFEE770B505460C46002614B900BFE2
:1056B000FFF7F6FF15B90A20208070BD00BF00BFBC
:1056C00000F020F9064600BF00BF10228849284696
:1056D00000F056FF00BF00BF304600F017F900BFD2
:1056E00000BF0020208000BFE7E72DE9F04105461C
:1056F0000C46002714B900BFFFF7D2FF1DB90A20DE
:105700002080BDE8F0811021284600F021FF0646E8
:10571000102E15D200BF00BF00F0F4F8074600BFFE
:1057200000BF10222946724800F02AFF00BF00BFC8
:10573000384600F0EBF800BF00BF0020208002E0F8
:105740004FF47A70208000BFDBE710B5FFF75EFFF3
:105750000446204610BD704700B5014611B900BF90
:10576000FFF79EFF634A106808B1002201E04FF482
:10577000FA620A8000BD5F490860704770B505464F
:10578000284600F0CAF80446183C204670BD70B5A3
:105790000546284600F0C1F80446103C204670BD7E
:1057A00070B50546284600F0B8F8044600BF20460C
:1057B00070BD30B502460B460024D2F1FF359C4146
:1057C00026D24FF6FF74D2F1FF359C410FD26FF015
:1057D0007F44D2F1FF359C4103D2190E464C605CE8
:1057E00044E0190C444C645C04F108003EE0FF24E2
:1057F000D2F1FF359C4105D2190A3F4C645C04F19B
:10580000100033E019463C4C645C04F118002DE0B4
:105810004FF6FF750024AD1A9C4115D26FF07F45FD
:105820000024AD1A9C4107D2140E44EA0321324CE5
:10583000645C04F1200019E0140C44EA03412E4C8E
:10584000645C04F1280011E00024D2F1FF059C41C2
:1058500007D2140A44EA0361274C645C04F1300067
:1058600004E01146244C645C04F1380030BD70B58E
:1058700004460CB9082070BD204600F051F80546DA
:105880002846F8E770B504460CB9102070BD2046D4
:1058900000F046F805462846F8E770B504460CB90E
:1058A000202070BD204600F03BF805462846F8E76A
:1058B0002DE9F04304460D46002184EA01006940C9
:1058C000084302D14020BDE8F083E243E843521C84
:1058D00040F1000102EA040601EA050730463946B4
:1058E000FFF767FF8046C8F13F094846EBE7000035
:1058F00048D40020680000207C54010872B670472C
:1059000062B67047EFF3108072B6704780F310886C
:10591000704730BF704720BF7047B0FA80F07047C3
:1059200090FAA0F0B0FA80F0704790FAA0F07047BB
:105930000146412903DB5A2901DC012200E0002253
:10594000012A08D0612903DB7A2901DC012200E069
:105950000022012A01D1012200E0002210467047F6
:105960000146412903DB5A2901DC012200E0002223
:10597000012A08D0612903DB7A2901DC012200E039
:105980000022012A01D1012200E00022012A08D0D0
:10599000302903DB392901DC012200E00022012A41
:1059A00001D1012200E00022104670470146612922
:1059B00003DB7A2901DC012200E000221046704757
:1059C0000146412903DB5A2901DC012200E00022C3
:1059D000104670470146302903DB392901DC0122DA
:1059E00000E00022104670470146302903DB3729CA
:1059F00001DC012200E000221046704701463029F8
:105A000001DB392907DD412901DB462903DD612955
:105A100003DB662901DC012200E00022104670470A
:105A20000146202901D0092901D1012200E00022EC
:105A3000104670470146202909D00D2907D00A29B0
:105A400005D00C2903D0092901D00B2901D101224D
:105A500000E00022104670470146202903DB7E2922
:105A600001DC012200E00022104670470146212996
:105A700003DB7E2901DC012200E000221046704792
:105A80000146202903DB7E2901DC012200E00022FF
:105A9000012A35D1202909D00D2907D00A2905D09E
:105AA0000C2903D0092901D00B2901D1012200E0E2
:105AB00000222ABB412903DB5A2901DC012200E034
:105AC0000022012A08D0612903DB7A2901DC0122A6
:105AD00000E00022012A01D1012200E00022012A77
